S00D00004C414231322E73726563E5
S113000071C0000086C0000084C0000082C00000EF
S113001080C000007EC000007CC000007AC00000E8
S113002078C0000076C0000074C0000072C00000F8
S113003070C000006EC000006CC000006AC0000008
S113004068C0000066C0000064C0000062C0000018
S113005060C000005EC000005CC000005AC0000028
S113006058C0000062C0000054C0000052C000002C
S113007050C000004EC000004CC000004AC0000048
S113008048C0000046C0000044C0000042C0000058
S113009040C000003EC000003CC000003AC0000068
S11300A038C0000036C0000034C0000032C0000078
S11300B030C000002EC000002CC000002AC0000088
S11300C028C0000026C0000024C0000022C0000098
S11300D020C000001EC000001CC000001AC00000A8
S11300E018C0000011241FBECFEFD1E2DEBFCDBF88
S11300F000E00CBF12E0A0E0B2E0EAE8F3E000E0C8
S11301000BBF02C007900D92A631B107D9F702D0F8
S11301103AC176CF01E02EE448E060E875E280E081
S113012090E04FD078943AD0FFCF1F920F920FB641
S11301300F9211240BB60F922F933F934F935F931B
S11301406F937F938F939F93AF93BF93CF93EF93CB
S1130150FF93C091C60080ED8C0F883058F422D0F4
S113016080E092E092D08C2F90E0C0979CD089E000
S113017092E08BD0FF91EF91CF91BF91AF919F917E
S11301808F917F916F915F914F913F912F910F903C
S11301900BBE0F900FBE0F901F9018958FEF84B970
S11301A015B80895883060F443B121E030E0B90116
S11301B002C0660F771F8A95E2F7CB01842785B9C1
S11301C00895CF92DF92EF92FF920F936B017C011F
S11301D03CE2C31A31E0D30AE108F10835EDC31655
S11301E030ECD30631E0E306F10408F040C045509A
S11301F04430E8F530E23093C000011104C038E126
S11302003093C10003C038E93093C100440F4093D8
S1130210C200253431F4E2ECF0E020812062208336
S113022007C02F3429F4E2ECF0E02081206320831E
S1130230DC01CB01880F991FAA1FBB1F880F991FD0
S1130240AA1FBB1F9C01AD01220F331F441F551F62
S1130250220F331F441F551F60E074E284EF90E0C7
S11302603DD0215031093093C5002093C4000F9133
S1130270FF90EF90DF90CF900895E0ECF0E0908154
S113028095FFFDCF8093C6000895CF93DF93EC01D3
S11302908881882329F02196F0DF89918111FCCF90
S11302A0DF91CF910895CF93DF93CDB7DEB7279732
S11302B00FB6F894DEBF0FBECDBF4AE0BE016F5F3C
S11302C07F4F2ED0CE010196E0DF27960FB6F8942B
S11302D0DEBF0FBECDBFDF91CF910895A1E21A2EEC
S11302E0AA1BBB1BFD010DC0AA1FBB1FEE1FFF1FD6
S11302F0A217B307E407F50720F0A21BB30BE40B26
S1130300F50B661F771F881F991F1A9469F760956C
S11303107095809590959B01AC01BD01CF01089526
S1130320BB274A3031F4992322F4BDE2909581959C
S11303309F4F01C0BB27FB015527AA27880F991F90
S1130340AA1FA41710F0A41B83955051B9F7A05D00
S1130350AA3308F0A95DA193009779F7B111B1937D
S11303601192CB0100C0DC01FC01672F719177234E
S1130370E1F7329704C07C916D9370836291AE175C
S10D0380BF07C8F30895F894FFCFF7
S113038A4C4544206E722E200020657220746F67DB
S109039A676C65640A00B3
S9030000FC
