S00D00004C414231312E73726563E6
S113000071C0000086C0000084C0000082C00000EF
S113001080C000007EC000007CC000007AC00000E8
S113002078C0000076C0000074C0000072C00000F8
S113003070C000006EC000006CC000006AC0000008
S113004068C0000066C0000064C0000062C0000018
S113005060C000005EC000005CC000005AC0000028
S113006058C0000056C0000054C0000052C0000038
S113007050C000004EC000004CC000004AC0000048
S113008048C0000046C0000044C0000042C0000058
S113009040C000003EC000003CC000003AC0000068
S11300A038C0000036C0000034C0000032C0000078
S11300B030C000002EC000002CC000002AC0000088
S11300C028C0000026C0000024C0000022C0000098
S11300D020C000001EC000001CC000001AC00000A8
S11300E018C0000011241FBECFEFD1E2DEBFCDBF88
S11300F000E00CBF12E0A0E0B2E0E0EAF2E000E0D1
S11301000BBF02C007900D92AE35B107D9F702D0EC
S1130110C5C076CFCF93DF93CDB7DEB7A8970FB620
S1130120F894DEBF0FBECDBF87E2E0E0F2E0DE016F
S1130130119601900D928A95E1F718A641D02EE40C
S113014048E060E875E280E090E03DD081E039D09D
S113015081E44CD082E44AD083E448D08DE046D098
S11301608AE044D082E02DD040D040D08DE03ED013
S11301708AE03CD083E025D036D08823E9F335D01B
S113018035D08DE033D08AE031D084E01AD088E2D3
S113019092E02DD085E015D0CE01019628D086E0DE
S11301A010D089E390E32CD08DE020D08AE01ED0DB
S11301B088E19CEF25D08DE019D08AE017D0C6CF16
S11301C0089585B9089587E690E09093C5008093DB
S11301D0C40080EE8093C00088E18093C10086E073
S11301E08093C200089580E0089508950895FC0165
S11301F02081222321F0319681918111FDCF089530
S1130200CF93DF93CDB7DEB764970FB6F894DEBF14
S11302100FBECDBF4AE0BE016F5F7F4F0CD0CE0151
S11302200196E5DF64960FB6F894DEBF0FBECDBF2E
S1130230DF91CF910895BB274A3031F4992322F4FA
S1130240BDE2909581959F4F01C0BB27FB015527C7
S1130250AA27880F991FAA1FA41710F0A41B83951F
S11302605051B9F7A05DAA3308F0A95DA193009796
S113027079F7B111B1931192CB0100C0DC01FC01FB
S1130280672F71917723E1F7329704C07C916D93C6
S113029070836291AE17BF07C8F30895F894FFCF37
S11302A05468697320737472696E6720697320736C
S11302B0746F72656420696E205352414D206D65E0
S11302C06D6F72790D0A000054686973207374723B
S11302D0696E672069732073746F7265642061733B
S11302E0206120636F6E7374616E7420696E206682
S11102F06C617368206D656D6F72790D0A0084
S9030000FC
